{
  "abi": [
    {
      "anonymous": false,
      "inputs": [
        {
          "indexed": true,
          "internalType": "string",
          "name": "_candidateName",
          "type": "string"
        },
        {
          "indexed": true,
          "internalType": "enum EVoting.ElectionType",
          "name": "_electionType",
          "type": "uint8"
        },
        {
          "indexed": true,
          "internalType": "bytes32",
          "name": "_electionId",
          "type": "bytes32"
        }
      ],
      "name": "CandidateCreated",
      "type": "event"
    },
    {
      "anonymous": false,
      "inputs": [
        {
          "indexed": true,
          "internalType": "string",
          "name": "_title",
          "type": "string"
        },
        {
          "indexed": true,
          "internalType": "enum EVoting.ElectionType",
          "name": "_electionType",
          "type": "uint8"
        }
      ],
      "name": "ElectionCreated",
      "type": "event"
    },
    {
      "anonymous": false,
      "inputs": [
        {
          "indexed": true,
          "internalType": "address",
          "name": "previousOwner",
          "type": "address"
        },
        {
          "indexed": true,
          "internalType": "address",
          "name": "newOwner",
          "type": "address"
        }
      ],
      "name": "OwnershipTransferred",
      "type": "event"
    },
    {
      "anonymous": false,
      "inputs": [
        {
          "indexed": true,
          "internalType": "bytes32",
          "name": "_electionId",
          "type": "bytes32"
        },
        {
          "indexed": true,
          "internalType": "bytes32",
          "name": "_candidateId",
          "type": "bytes32"
        }
      ],
      "name": "VoteCasted",
      "type": "event"
    },
    {
      "anonymous": false,
      "inputs": [
        {
          "indexed": true,
          "internalType": "string",
          "name": "_matNo",
          "type": "string"
        }
      ],
      "name": "VoterRegistered",
      "type": "event"
    },
    {
      "inputs": [
        {
          "internalType": "bytes32",
          "name": "",
          "type": "bytes32"
        },
        {
          "internalType": "bytes32",
          "name": "",
          "type": "bytes32"
        },
        {
          "internalType": "bytes32",
          "name": "",
          "type": "bytes32"
        }
      ],
      "name": "CandidateStats",
      "outputs": [
        {
          "internalType": "bytes32",
          "name": "electionId",
          "type": "bytes32"
        },
        {
          "internalType": "string",
          "name": "candidateName",
          "type": "string"
        },
        {
          "internalType": "string",
          "name": "post",
          "type": "string"
        },
        {
          "internalType": "uint256",
          "name": "voteCount",
          "type": "uint256"
        },
        {
          "internalType": "enum EVoting.ElectionType",
          "name": "election_type",
          "type": "uint8"
        }
      ],
      "stateMutability": "view",
      "type": "function"
    },
    {
      "inputs": [
        {
          "internalType": "bytes32",
          "name": "",
          "type": "bytes32"
        }
      ],
      "name": "Elections",
      "outputs": [
        {
          "internalType": "string",
          "name": "title",
          "type": "string"
        },
        {
          "internalType": "uint256",
          "name": "start",
          "type": "uint256"
        },
        {
          "internalType": "uint256",
          "name": "end",
          "type": "uint256"
        },
        {
          "internalType": "bool",
          "name": "isActive",
          "type": "bool"
        },
        {
          "internalType": "enum EVoting.ElectionType",
          "name": "election_type",
          "type": "uint8"
        }
      ],
      "stateMutability": "view",
      "type": "function"
    },
    {
      "inputs": [
        {
          "internalType": "string",
          "name": "_electionId",
          "type": "string"
        },
        {
          "internalType": "string",
          "name": "_candidateId",
          "type": "string"
        },
        {
          "internalType": "string",
          "name": "_candidateName",
          "type": "string"
        },
        {
          "internalType": "string",
          "name": "_post",
          "type": "string"
        },
        {
          "internalType": "string",
          "name": "_matNo",
          "type": "string"
        },
        {
          "internalType": "string",
          "name": "_email",
          "type": "string"
        }
      ],
      "name": "castVote",
      "outputs": [],
      "stateMutability": "nonpayable",
      "type": "function"
    },
    {
      "inputs": [
        {
          "internalType": "string",
          "name": "_electionId",
          "type": "string"
        },
        {
          "internalType": "string",
          "name": "_title",
          "type": "string"
        },
        {
          "internalType": "uint256",
          "name": "_start",
          "type": "uint256"
        },
        {
          "internalType": "uint256",
          "name": "_end",
          "type": "uint256"
        },
        {
          "internalType": "uint8",
          "name": "_electionType",
          "type": "uint8"
        }
      ],
      "name": "createElection",
      "outputs": [],
      "stateMutability": "nonpayable",
      "type": "function"
    },
    {
      "inputs": [
        {
          "internalType": "string",
          "name": "_electionId",
          "type": "string"
        },
        {
          "internalType": "string",
          "name": "_post",
          "type": "string"
        }
      ],
      "name": "getVotesByElection",
      "outputs": [
        {
          "components": [
            {
              "internalType": "bytes32",
              "name": "electionId",
              "type": "bytes32"
            },
            {
              "internalType": "string",
              "name": "candidateName",
              "type": "string"
            },
            {
              "internalType": "string",
              "name": "post",
              "type": "string"
            },
            {
              "internalType": "uint256",
              "name": "voteCount",
              "type": "uint256"
            },
            {
              "internalType": "enum EVoting.ElectionType",
              "name": "election_type",
              "type": "uint8"
            }
          ],
          "internalType": "struct EVoting.Candidate[]",
          "name": "",
          "type": "tuple[]"
        }
      ],
      "stateMutability": "view",
      "type": "function"
    },
    {
      "inputs": [
        {
          "internalType": "bytes32",
          "name": "",
          "type": "bytes32"
        }
      ],
      "name": "isWhitelisted",
      "outputs": [
        {
          "internalType": "bool",
          "name": "",
          "type": "bool"
        }
      ],
      "stateMutability": "view",
      "type": "function"
    },
    {
      "inputs": [],
      "name": "number",
      "outputs": [
        {
          "internalType": "uint256",
          "name": "",
          "type": "uint256"
        }
      ],
      "stateMutability": "view",
      "type": "function"
    },
    {
      "inputs": [],
      "name": "owner",
      "outputs": [
        {
          "internalType": "address",
          "name": "",
          "type": "address"
        }
      ],
      "stateMutability": "view",
      "type": "function"
    },
    {
      "inputs": [
        {
          "internalType": "string",
          "name": "_electionId",
          "type": "string"
        },
        {
          "internalType": "string",
          "name": "_candidateId",
          "type": "string"
        },
        {
          "internalType": "string",
          "name": "_candidateName",
          "type": "string"
        },
        {
          "internalType": "string",
          "name": "_post",
          "type": "string"
        },
        {
          "internalType": "uint8",
          "name": "_electionType",
          "type": "uint8"
        }
      ],
      "name": "registerCandidate",
      "outputs": [],
      "stateMutability": "nonpayable",
      "type": "function"
    },
    {
      "inputs": [
        {
          "internalType": "string",
          "name": "_matNo",
          "type": "string"
        },
        {
          "internalType": "string",
          "name": "email",
          "type": "string"
        }
      ],
      "name": "registerVoter",
      "outputs": [],
      "stateMutability": "nonpayable",
      "type": "function"
    },
    {
      "inputs": [],
      "name": "renounceOwnership",
      "outputs": [],
      "stateMutability": "nonpayable",
      "type": "function"
    },
    {
      "inputs": [
        {
          "internalType": "address",
          "name": "newOwner",
          "type": "address"
        }
      ],
      "name": "transferOwnership",
      "outputs": [],
      "stateMutability": "nonpayable",
      "type": "function"
    }
  ],
  "bytecode": {
    "object": "0x6080806040523461005b5760008054336001600160a01b0319821681178355916001600160a01b03909116907f8be0079c531659141344cd1fd0a4f28419497f9722a3daafe3b4186f6b6457e09080a361195190816100618239f35b600080fdfe608080604052600436101561001357600080fd5b60003560e01c90816301a5e3fe146115fd57508063483d70c71461136b5780635ec399ec1461103b578063715018a614610fe25780637c72c02614610f3c5780638381f58a14610f1e5780638a4c884714610e8a5780638da5cb5b14610e61578063ade31a9214610a48578063bce698b0146101f3578063ecfe145b146101735763f2fde38b146100a357600080fd5b3461016e57602036600319011261016e576004356001600160a01b038181169182900361016e576100d2611847565b811561011a57600054826bffffffffffffffffffffffff60a01b821617600055167f8be0079c531659141344cd1fd0a4f28419497f9722a3daafe3b4186f6b6457e0600080a3005b60405162461bcd60e51b815260206004820152602660248201527f4f776e61626c653a206e6577206f776e657220697320746865207a65726f206160448201526564647265737360d01b6064820152608490fd5b600080fd5b3461016e57602036600319011261016e5760043560005260036020526101c960406000206101a0816117a1565b906101ef600182015491600360028201549101549060405195869560a0875260a0870190611725565b936020860152604085015260ff81161515606085015260ff608085019160081c1661174a565b0390f35b3461016e5760a036600319011261016e576004356001600160401b03811161016e57610223903690600401611666565b602480356001600160401b03811161016e57610243903690600401611666565b6044356001600160401b03811161016e57610262903690600401611666565b906064356001600160401b03811161016e57610282903690600401611666565b9061028b611757565b90610294611847565b60405160208101906102c0602082816102b38c87815193849201611702565b8101038084520182611645565b5190209160405160208101906102e160208288516102b38187858d01611702565b5190209160405191600083528260208101106001600160401b03602085011117610a3357602083016040528460005260056020526040600020846000526020526040600020805490816020860152604085019060005260206000209160005b818110610a1d575061035e925050849003601f190160208501611645565b60005b60208401518110156104ee5761037a81602086016118da565b5186600052600460205260406000208660005260205260406000209060005260205260406000206040516103ad8161162a565b815481526103f66103c0600184016117a1565b9160208101928352608060ff60046103da600288016117a1565b966040850197885260038101546060860152015416910161189f565b51604051610414602082816102b38183019687815193849201611702565b51902089604051610435602082816102b38183019687815193849201611702565b5190201461044d575b50610448906118cb565b610361565b8760405161046b602082816102b38183019687815193849201611702565b519020905160405161048d602082816102b38183019687815193849201611702565b5190201461049b578a61043e565b60405162461bcd60e51b8152602060048201526026818b01527f45566f74696e673a2043616e64696461746520616c726561647920726567697360448201526574657265642160d01b6064820152608490fd5b50869086898b604051610511602082816102b38183019687815193849201611702565b51902094604051610532602082816102b38183019687815193849201611702565b51902091604051602081019061055360208285516102b38187858a01611702565b51902090866000526003602052604060002060ff600382015416159081610a0f575b81610a01575b501561099f5786600052600360205260ff60036040600020015460081c16600360ff8716101561079a57600381101561079a5760ff86160361095b57604051906105c48261162a565b87825260208201908782526040830152600060608301526105eb60ff87166080840161189f565b87600052600460205260406000208360005260205260406000208560005260205260406000209082518255518051906001600160401b0382116108765781906106376001850154611767565b601f8111610908575b50602090601f83116001146108965760009261088b575b50508160011b916000199060031b1c19161760018201555b60408201518051906001600160401b038211610876576106926002840154611767565b601f811161082f575b50602090601f83116001146107ba579180608094926004946000926107af575b50508160011b916000199060031b1c19161760028201555b6060840151600382015501910151600381101561079a5760ff8019835416911617905585600052600560205260406000209060005260205260406000208054916801000000000000000083101561078657600183018083558310156107725750600090815260209020015560ff169061074b906118ab565b7f1de6d39cfa5bba9b2ceb1c66635ced1eb9d2323fda3836f48f75009543621f0d600080a4005b634e487b7160e01b60009081526032600452fd5b634e487b7160e01b60009081526041600452fd5b83634e487b7160e01b60005260216004526000fd5b015190508c806106bb565b906002840160005260206000209160005b601f19851681106108175750926080949260019260049583601f198116106107fe575b505050811b0160028201556106d3565b015160001960f88460031b161c191690558c80806107ee565b919260206001819286850151815501940192016107cb565b600284016000526020600020601f840160051c81016020851061086f575b601f830160051c8201811061086357505061069b565b6000815560010161084d565b508061084d565b85634e487b7160e01b60005260416004526000fd5b015190508a80610657565b9250600184016000526020600020906000935b601f19841685106108ed576001945083601f198116106108d4575b505050811b01600182015561066f565b015160001960f88460031b161c191690558a80806108c4565b818101518355602094850194600190930192909101906108a9565b909150600184016000526020600020601f840160051c810160208510610954575b90849392915b601f830160051c82018110610945575050610640565b6000815585945060010161092f565b5080610929565b60405162461bcd60e51b8152602060048201526018818501527f45566f74696e673a2057726f6e6720656c656374696f6e2100000000000000006044820152606490fd5b60405162461bcd60e51b8152602060048201526035818501527f45566f74696e673a2043616e27742072656769737465722063616e646964617460448201527465206166746572207374617274206f7220656e642160581b6064820152608490fd5b60029150015442108861057b565b600181015442109150610575565b8354835260019384019360209093019201610340565b87634e487b7160e01b60005260416004526000fd5b3461016e5760c036600319011261016e576001600160401b0360043581811161016e57610a79903690600401611666565b9060243581811161016e57610a92903690600401611666565b9060443581811161016e57610aab903690600401611666565b9260643582811161016e57610ac4903690600401611666565b9060843583811161016e57610add903690600401611666565b9260a43590811161016e57610af6903690600401611666565b91610aff611847565b6040516020948582019181519287830193610b1b818387611702565b820191610b4289828a51828c0196610b36828583018a611702565b01038084520182611645565b5190206000526002875260ff6040600020541615610e1c5760405193878501865195610b788a82818b01996102b381878d611702565b51902060405189810190610ba68b828851610b9481878d611702565b81018d5190610b36828583018c611702565b5190209060005260068952604060002090600052885260ff60406000205416610dd757610b3692610c1a928992604051610bef8582816102b38183019687815193849201611702565b51902098604051958693610c0b868601998a9251928391611702565b84019151809386840190611702565b51902091610c398560405180936102b383830196879251928391611702565b51902093604051610c598582816102b38183019687815193849201611702565b519020948460005260048452604060002083600052845260406000208660005284526040600020610cd1604051610c8f8161162a565b82548152608060ff6004610ca5600187016117a1565b958a8501968752610cb8600282016117a1565b604086015260038101546060860152015416910161189f565b51604051610cee8682816102b38183019687815193849201611702565b51902090604051610d0e8682816102b38183019687815193849201611702565b51902003610d9257836000526006835260406000209060005282526040600020600160ff198254161790558260005260048252604060002090600052815260406000209083600052526003604060002001610d6981546118cb565b90557fed6968bb3c70f953b221358458bb9308ed328e2aa73b7d5425384183c722b147600080a3005b60405162461bcd60e51b815260048101849052601c60248201527f45566f74696e673a2043616e646964617465206d69736d6174636821000000006044820152606490fd5b60405162461bcd60e51b815260048101899052601c60248201527f45566f74696e673a205573657220616c726561647920766f74656421000000006044820152606490fd5b60405162461bcd60e51b815260048101889052601960248201527f45566f74696e673a204e6f742077686974656c697374656421000000000000006044820152606490fd5b3461016e57600036600319011261016e576000546040516001600160a01b039091168152602090f35b3461016e57610ef76002610e9d366116bc565b610ea8929192611847565b60405190602091610edb8382818101948851610ec78188868d01611702565b8201610b3682518093868085019101611702565b519020600052526040600020600160ff198254161790556118ab565b7fa10c6ba5c7ce6da8ba832add5620aa12208520dacb5c93e479f9c1b56bb915b4600080a2005b3461016e57600036600319011261016e576020600154604051908152f35b3461016e57606036600319011261016e5760043560005260046020526040600020602435600052602052604060002060443560005260205260406000208054610f87600183016117a1565b916101ef610f97600283016117a1565b610fd260ff600460038601549501541691610fc4604051978897885260a0602089015260a0880190611725565b908682036040880152611725565b926060850152608084019061174a565b3461016e57600036600319011261016e57610ffb611847565b600080546001600160a01b0319811682556001600160a01b03167f8be0079c531659141344cd1fd0a4f28419497f9722a3daafe3b4186f6b6457e08280a3005b3461016e5760a036600319011261016e576001600160401b0360043581811161016e5761106c903690600401611666565b9060243581811161016e57611085903690600401611666565b60443591606435611094611757565b61109c611847565b8442111580611362575b156113115760ff1694600394858710156112cc57604051916020926110da8482816102b38183019687815193849201611702565b51902092604051916110eb8361162a565b8683528383019081526040830191825260608301956000875260808401956111138b8861189f565b600052888552604060002093519485519182116112b65789956111368654611767565b601f811161125b575b5081601f84116001146111ef575060009190836111e4575b50508160011b9160001990871b1c19161783555b51600183015551600282015501915115159082549051948510156111ce5760ff61ff006111a79660081b1692169061ffff1916171790556118ab565b7f21868cbca3fb7c16c61b90da009aeac32db7643da2082539fdaa97af82a68f17600080a3005b634e487b7160e01b600052602160045260246000fd5b015190508b80611157565b9190601f1984168760005283600020936000905b82821061123f575050908460019594939210611227575b505050811b01835561116b565b015160001983891b60f8161c191690558b808061121a565b8484015186558e9a506001909501949384019390810190611203565b90919293949580975060005282600020601f850160051c8101918486106112ac575b90601f8d99989796959493920160051c01905b81811061129d575061113f565b600081558c9850600101611290565b909150819061127d565b634e487b7160e01b600052604160045260246000fd5b60405162461bcd60e51b815260206004820152601760248201527f45566f74696e673a20456c656374696f6e2074797065210000000000000000006044820152606490fd5b60405162461bcd60e51b815260206004820152602360248201527f45566f74696e673a20496e76616c696420656c656374696f6e206475726174696044820152626f6e2160e81b6064820152608490fd5b508185106110a6565b3461016e57611379366116bc565b906040519160209261139a8482816102b38183019687815193849201611702565b519020906040516113ba8482816102b38183019687815193849201611702565b51902090816000526005835260406000208160005283526040600020604051808286829454938481520190600052866000209260005b888282106115e75750505061140792500382611645565b80519061141382611904565b916114216040519384611645565b808352611430601f1991611904565b018560005b8281106115b05750505060005b815160ff8083169182101561150e57906114e39161146082866118da565b518860005260048a526040600020886000528a5260406000209060005289526114d26040600020916004604051936114978561162a565b805485526114a7600182016117a1565b8d8601526114b7600282016117a1565b6040860152600381015460608601520154166080830161189f565b6114dc82876118da565b52846118da565b5060ff8091169081146114f857600101611442565b634e487b7160e01b600052601160045260246000fd5b604080518981528651818b01819052600092600582901b8301810191898d01918d9085015b8287106115405785850386f35b909192938280600192603f198982030185526115a0885191825181526115876115758585015160a08088860152840190611725565b60408501518382036040850152611725565b926060808201519083015260808091015191019061174a565b9601920196019592919092611533565b6040516115bc8161162a565b6000815260006060808584015280604084015282015260006080820152828287010152018690611435565b85548452600195860195879550930192016113f0565b3461016e57602036600319011261016e576020906004356000526002825260ff6040600020541615158152f35b60a081019081106001600160401b038211176112b657604052565b90601f801991011681019081106001600160401b038211176112b657604052565b81601f8201121561016e578035906001600160401b0382116112b6576040519261169a601f8401601f191660200185611645565b8284526020838301011161016e57816000926020809301838601378301015290565b90604060031983011261016e576001600160401b0360043581811161016e57836116e891600401611666565b9260243591821161016e576116ff91600401611666565b90565b60005b8381106117155750506000910152565b8181015183820152602001611705565b9060209161173e81518092818552858086019101611702565b601f01601f1916010190565b9060038210156111ce5752565b6084359060ff8216820361016e57565b90600182811c92168015611797575b602083101461178157565b634e487b7160e01b600052602260045260246000fd5b91607f1691611776565b90604051918260008254926117b584611767565b90818452600194858116908160001461182457506001146117e1575b50506117df92500383611645565b565b9093915060005260209081600020936000915b81831061180c5750506117df935082010138806117d1565b855488840185015294850194879450918301916117f4565b9150506117df94506020925060ff191682840152151560051b82010138806117d1565b6000546001600160a01b0316330361185b57565b606460405162461bcd60e51b815260206004820152602060248201527f4f776e61626c653a2063616c6c6572206973206e6f7420746865206f776e65726044820152fd5b60038210156111ce5752565b6118c390602060405192828480945193849201611702565b810103902090565b60001981146114f85760010190565b80518210156118ee5760209160051b010190565b634e487b7160e01b600052603260045260246000fd5b6001600160401b0381116112b65760051b6020019056fea2646970667358221220883cfa147555e38dd5bba24db6f38d83ec69b599edb8095193fb2a44b7f70dc264736f6c63430008130033",
    "linkReferences": {}
  },
  "methodIdentifiers": {
    "CandidateStats(bytes32,bytes32,bytes32)": "7c72c026",
    "Elections(bytes32)": "ecfe145b",
    "castVote(string,string,string,string,string,string)": "ade31a92",
    "createElection(string,string,uint256,uint256,uint8)": "5ec399ec",
    "getVotesByElection(string,string)": "483d70c7",
    "isWhitelisted(bytes32)": "01a5e3fe",
    "number()": "8381f58a",
    "owner()": "8da5cb5b",
    "registerCandidate(string,string,string,string,uint8)": "bce698b0",
    "registerVoter(string,string)": "8a4c8847",
    "renounceOwnership()": "715018a6",
    "transferOwnership(address)": "f2fde38b"
  },
  "id": 22
}